{
  "address": "0x99EdE5398F1F1Ca2Bc0113DE3D6627a9FEe4Fa81",
  "abi": [
    {
      "inputs": [
        {
          "internalType": "address",
          "name": "owner",
          "type": "address"
        },
        {
          "internalType": "bool",
          "name": "permissioned",
          "type": "bool"
        }
      ],
      "stateMutability": "nonpayable",
      "type": "constructor"
    },
    {
      "anonymous": false,
      "inputs": [
        {
          "indexed": true,
          "internalType": "address",
          "name": "previousOwner",
          "type": "address"
        },
        {
          "indexed": true,
          "internalType": "address",
          "name": "newOwner",
          "type": "address"
        }
      ],
      "name": "OwnershipTransferred",
      "type": "event"
    },
    {
      "inputs": [],
      "name": "MAX_MINT_AMOUNT",
      "outputs": [
        {
          "internalType": "uint256",
          "name": "",
          "type": "uint256"
        }
      ],
      "stateMutability": "view",
      "type": "function"
    },
    {
      "inputs": [
        {
          "internalType": "address",
          "name": "asset",
          "type": "address"
        }
      ],
      "name": "isMintable",
      "outputs": [
        {
          "internalType": "bool",
          "name": "",
          "type": "bool"
        }
      ],
      "stateMutability": "view",
      "type": "function"
    },
    {
      "inputs": [],
      "name": "isPermissioned",
      "outputs": [
        {
          "internalType": "bool",
          "name": "",
          "type": "bool"
        }
      ],
      "stateMutability": "view",
      "type": "function"
    },
    {
      "inputs": [
        {
          "internalType": "address",
          "name": "token",
          "type": "address"
        },
        {
          "internalType": "address",
          "name": "to",
          "type": "address"
        },
        {
          "internalType": "uint256",
          "name": "amount",
          "type": "uint256"
        }
      ],
      "name": "mint",
      "outputs": [
        {
          "internalType": "uint256",
          "name": "",
          "type": "uint256"
        }
      ],
      "stateMutability": "nonpayable",
      "type": "function"
    },
    {
      "inputs": [],
      "name": "owner",
      "outputs": [
        {
          "internalType": "address",
          "name": "",
          "type": "address"
        }
      ],
      "stateMutability": "view",
      "type": "function"
    },
    {
      "inputs": [],
      "name": "renounceOwnership",
      "outputs": [],
      "stateMutability": "nonpayable",
      "type": "function"
    },
    {
      "inputs": [
        {
          "internalType": "address",
          "name": "asset",
          "type": "address"
        },
        {
          "internalType": "bool",
          "name": "active",
          "type": "bool"
        }
      ],
      "name": "setMintable",
      "outputs": [],
      "stateMutability": "nonpayable",
      "type": "function"
    },
    {
      "inputs": [
        {
          "internalType": "bool",
          "name": "permissioned",
          "type": "bool"
        }
      ],
      "name": "setPermissioned",
      "outputs": [],
      "stateMutability": "nonpayable",
      "type": "function"
    },
    {
      "inputs": [
        {
          "internalType": "address",
          "name": "newOwner",
          "type": "address"
        }
      ],
      "name": "transferOwnership",
      "outputs": [],
      "stateMutability": "nonpayable",
      "type": "function"
    },
    {
      "inputs": [
        {
          "internalType": "address[]",
          "name": "childContracts",
          "type": "address[]"
        },
        {
          "internalType": "address",
          "name": "newOwner",
          "type": "address"
        }
      ],
      "name": "transferOwnershipOfChild",
      "outputs": [],
      "stateMutability": "nonpayable",
      "type": "function"
    }
  ],
  "transactionHash": "0xf686f0707ce2f0cb7764f81f6ca84db436d6dee1438c761a304a081434d4f67b",
  "args": [
    "0x1099a1b84678493Bc6c6F737aa3FFe5bcf488Bf9",
    true
  ],
  "numDeployments": 1,
  "solcInputHash": "afa3e5e8b3854b65627db3eff7ad76b1",
  "bytecode": "0x608060405234801561001057600080fd5b5060405161101f38038061101f83398101604081905261002f9161019e565b600080546001600160a01b03191633908117825560405190918291600080516020610fff833981519152908290a3506001600160a01b03821661007157600080fd5b61007a82610091565b6002805460ff1916911515919091179055506101e9565b6000546001600160a01b031633146100f05760405162461bcd60e51b815260206004820181905260248201527f4f776e61626c653a2063616c6c6572206973206e6f7420746865206f776e657260448201526064015b60405180910390fd5b6001600160a01b0381166101555760405162461bcd60e51b815260206004820152602660248201527f4f776e61626c653a206e6577206f776e657220697320746865207a65726f206160448201526564647265737360d01b60648201526084016100e7565b600080546040516001600160a01b0380851693921691600080516020610fff83398151915291a3600080546001600160a01b0319166001600160a01b0392909216919091179055565b600080604083850312156101b157600080fd5b82516001600160a01b03811681146101c857600080fd5b602084015190925080151581146101de57600080fd5b809150509250929050565b610e07806101f86000396000f3fe608060405234801561001057600080fd5b50600436106100be5760003560e01c8063c6c3bbe611610076578063f2fde38b1161005b578063f2fde38b14610196578063f7eb06c4146101a9578063fa9b7018146101bc57600080fd5b8063c6c3bbe61461016a578063e2a4157c1461018b57600080fd5b8063506f26cc116100a7578063506f26cc14610127578063715018a61461013a5780638da5cb5b1461014257600080fd5b80631a678cd3146100c3578063222b15fb146100d8575b600080fd5b6100d66100d1366004610a2d565b6101c5565b005b6101126100e6366004610a7a565b73ffffffffffffffffffffffffffffffffffffffff1660009081526001602052604090205460ff161590565b60405190151581526020015b60405180910390f35b6100d6610135366004610a95565b61027c565b6100d66103cb565b60005460405173ffffffffffffffffffffffffffffffffffffffff909116815260200161011e565b61017d610178366004610b19565b6104bb565b60405190815260200161011e565b60025460ff16610112565b6100d66101a4366004610a7a565b610796565b6100d66101b7366004610b55565b610947565b61017d61271081565b60005473ffffffffffffffffffffffffffffffffffffffff16331461024b576040517f08c379a000000000000000000000000000000000000000000000000000000000815260206004820181905260248201527f4f776e61626c653a2063616c6c6572206973206e6f7420746865206f776e657260448201526064015b60405180910390fd5b600280547fffffffffffffffffffffffffffffffffffffffffffffffffffffffffffffff0016911515919091179055565b60005473ffffffffffffffffffffffffffffffffffffffff1633146102fd576040517f08c379a000000000000000000000000000000000000000000000000000000000815260206004820181905260248201527f4f776e61626c653a2063616c6c6572206973206e6f7420746865206f776e65726044820152606401610242565b60005b828110156103c55783838281811061031a5761031a610b8c565b905060200201602081019061032f9190610a7a565b6040517ff2fde38b00000000000000000000000000000000000000000000000000000000815273ffffffffffffffffffffffffffffffffffffffff8481166004830152919091169063f2fde38b90602401600060405180830381600087803b15801561039a57600080fd5b505af11580156103ae573d6000803e3d6000fd5b5050505080806103bd90610bea565b915050610300565b50505050565b60005473ffffffffffffffffffffffffffffffffffffffff16331461044c576040517f08c379a000000000000000000000000000000000000000000000000000000000815260206004820181905260248201527f4f776e61626c653a2063616c6c6572206973206e6f7420746865206f776e65726044820152606401610242565b6000805460405173ffffffffffffffffffffffffffffffffffffffff909116907f8be0079c531659141344cd1fd0a4f28419497f9722a3daafe3b4186f6b6457e0908390a3600080547fffffffffffffffffffffffff0000000000000000000000000000000000000000169055565b60025460009060ff1615156001141561054f5760005473ffffffffffffffffffffffffffffffffffffffff16331461054f576040517f08c379a000000000000000000000000000000000000000000000000000000000815260206004820181905260248201527f4f776e61626c653a2063616c6c6572206973206e6f7420746865206f776e65726044820152606401610242565b73ffffffffffffffffffffffffffffffffffffffff841660009081526001602052604090205460ff16156105df576040517f08c379a000000000000000000000000000000000000000000000000000000000815260206004820152601360248201527f4572726f723a206e6f74206d696e7461626c65000000000000000000000000006044820152606401610242565b8373ffffffffffffffffffffffffffffffffffffffff1663313ce5676040518163ffffffff1660e01b8152600401602060405180830381865afa15801561062a573d6000803e3d6000fd5b505050506040513d601f19601f8201168201806040525081019061064e9190610c23565b61065990600a610d68565b61066590612710610d77565b8211156106f4576040517f08c379a000000000000000000000000000000000000000000000000000000000815260206004820152602660248201527f4572726f723a204d696e74206c696d6974207472616e73616374696f6e20657860448201527f63656564656400000000000000000000000000000000000000000000000000006064820152608401610242565b6040517f40c10f1900000000000000000000000000000000000000000000000000000000815273ffffffffffffffffffffffffffffffffffffffff8481166004830152602482018490528516906340c10f19906044016020604051808303816000875af1158015610769573d6000803e3d6000fd5b505050506040513d601f19601f8201168201806040525081019061078d9190610db4565b50909392505050565b60005473ffffffffffffffffffffffffffffffffffffffff163314610817576040517f08c379a000000000000000000000000000000000000000000000000000000000815260206004820181905260248201527f4f776e61626c653a2063616c6c6572206973206e6f7420746865206f776e65726044820152606401610242565b73ffffffffffffffffffffffffffffffffffffffff81166108ba576040517f08c379a000000000000000000000000000000000000000000000000000000000815260206004820152602660248201527f4f776e61626c653a206e6577206f776e657220697320746865207a65726f206160448201527f64647265737300000000000000000000000000000000000000000000000000006064820152608401610242565b6000805460405173ffffffffffffffffffffffffffffffffffffffff808516939216917f8be0079c531659141344cd1fd0a4f28419497f9722a3daafe3b4186f6b6457e091a3600080547fffffffffffffffffffffffff00000000000000000000000000000000000000001673ffffffffffffffffffffffffffffffffffffffff92909216919091179055565b60005473ffffffffffffffffffffffffffffffffffffffff1633146109c8576040517f08c379a000000000000000000000000000000000000000000000000000000000815260206004820181905260248201527f4f776e61626c653a2063616c6c6572206973206e6f7420746865206f776e65726044820152606401610242565b73ffffffffffffffffffffffffffffffffffffffff909116600090815260016020526040902080547fffffffffffffffffffffffffffffffffffffffffffffffffffffffffffffff00169115919091179055565b8015158114610a2a57600080fd5b50565b600060208284031215610a3f57600080fd5b8135610a4a81610a1c565b9392505050565b803573ffffffffffffffffffffffffffffffffffffffff81168114610a7557600080fd5b919050565b600060208284031215610a8c57600080fd5b610a4a82610a51565b600080600060408486031215610aaa57600080fd5b833567ffffffffffffffff80821115610ac257600080fd5b818601915086601f830112610ad657600080fd5b813581811115610ae557600080fd5b8760208260051b8501011115610afa57600080fd5b602092830195509350610b109186019050610a51565b90509250925092565b600080600060608486031215610b2e57600080fd5b610b3784610a51565b9250610b4560208501610a51565b9150604084013590509250925092565b60008060408385031215610b6857600080fd5b610b7183610a51565b91506020830135610b8181610a1c565b809150509250929050565b7f4e487b7100000000000000000000000000000000000000000000000000000000600052603260045260246000fd5b7f4e487b7100000000000000000000000000000000000000000000000000000000600052601160045260246000fd5b60007fffffffffffffffffffffffffffffffffffffffffffffffffffffffffffffffff821415610c1c57610c1c610bbb565b5060010190565b600060208284031215610c3557600080fd5b815160ff81168114610a4a57600080fd5b600181815b80851115610c9f57817fffffffffffffffffffffffffffffffffffffffffffffffffffffffffffffffff04821115610c8557610c85610bbb565b80851615610c9257918102915b93841c9390800290610c4b565b509250929050565b600082610cb657506001610d62565b81610cc357506000610d62565b8160018114610cd95760028114610ce357610cff565b6001915050610d62565b60ff841115610cf457610cf4610bbb565b50506001821b610d62565b5060208310610133831016604e8410600b8410161715610d22575081810a610d62565b610d2c8383610c46565b807fffffffffffffffffffffffffffffffffffffffffffffffffffffffffffffffff04821115610d5e57610d5e610bbb565b0290505b92915050565b6000610a4a60ff841683610ca7565b6000817fffffffffffffffffffffffffffffffffffffffffffffffffffffffffffffffff0483118215151615610daf57610daf610bbb565b500290565b600060208284031215610dc657600080fd5b8151610a4a81610a1c56fea26469706673582212201fc7b0bb2277cd5a463dd00c514a0799df0cc6f83d9e74b2f35d44b19a98d51464736f6c634300080a00338be0079c531659141344cd1fd0a4f28419497f9722a3daafe3b4186f6b6457e0",
  "devdoc": {
    "details": "Ownable Faucet Contract",
    "kind": "dev",
    "methods": {
      "isMintable(address)": {
        "params": {
          "asset": "The address of the asset"
        },
        "returns": {
          "_0": "True if the asset is mintable, false otherwise"
        }
      },
      "isPermissioned()": {
        "returns": {
          "_0": "Returns a boolean, if true the mode is enabled, if false is disabled"
        }
      },
      "mint(address,address,uint256)": {
        "params": {
          "amount": "The amount of tokens to mint",
          "to": "The address to send the minted tokens",
          "token": "The address of the token to perform the mint"
        },
        "returns": {
          "_0": "The amount minted*"
        }
      },
      "owner()": {
        "details": "Returns the address of the current owner."
      },
      "renounceOwnership()": {
        "details": "Leaves the contract without owner. It will not be possible to call `onlyOwner` functions anymore. Can only be called by the current owner. NOTE: Renouncing ownership will leave the contract without an owner, thereby removing any functionality that is only available to the owner."
      },
      "setMintable(address,bool)": {
        "params": {
          "active": "True to enable, false to disable",
          "asset": "The address of the asset"
        }
      },
      "setPermissioned(bool)": {
        "params": {
          "value": "If true, ask for authentication at `mint` function, if false, disable the authentication"
        }
      },
      "transferOwnership(address)": {
        "details": "Transfers ownership of the contract to a new account (`newOwner`). Can only be called by the current owner."
      },
      "transferOwnershipOfChild(address[],address)": {
        "params": {
          "childContracts": "A list of child contract addresses",
          "newOwner": "The address of the new owner"
        }
      }
    },
    "stateVariables": {
      "MAX_MINT_AMOUNT": {
        "return": "The maximum amount of tokens per mint allowed",
        "returns": {
          "_0": "The maximum amount of tokens per mint allowed"
        }
      }
    },
    "title": "Faucet",
    "version": 1
  },
  "userdoc": {
    "kind": "user",
    "methods": {
      "MAX_MINT_AMOUNT()": {
        "notice": "Returns the maximum amount of tokens per mint allowed"
      },
      "isMintable(address)": {
        "notice": "Returns whether the asset is mintable"
      },
      "isPermissioned()": {
        "notice": "Getter to determine if permissioned mode is enabled or disabled"
      },
      "mint(address,address,uint256)": {
        "notice": "Function to mint Testnet tokens to the destination address"
      },
      "setMintable(address,bool)": {
        "notice": "Enable or disable the minting of the faucet asset"
      },
      "setPermissioned(bool)": {
        "notice": "Enable or disable the need of authentication to call `mint` function"
      },
      "transferOwnershipOfChild(address[],address)": {
        "notice": "Transfer the ownership of child contracts"
      }
    },
    "version": 1
  },
  "storageLayout": {
    "storage": [
      {
        "astId": 1472,
        "contract": "@aave/periphery-v3/contracts/mocks/testnet-helpers/Faucet.sol:Faucet",
        "label": "_owner",
        "offset": 0,
        "slot": "0",
        "type": "t_address"
      },
      {
        "astId": 36165,
        "contract": "@aave/periphery-v3/contracts/mocks/testnet-helpers/Faucet.sol:Faucet",
        "label": "_nonMintable",
        "offset": 0,
        "slot": "1",
        "type": "t_mapping(t_address,t_bool)"
      },
      {
        "astId": 36167,
        "contract": "@aave/periphery-v3/contracts/mocks/testnet-helpers/Faucet.sol:Faucet",
        "label": "_permissioned",
        "offset": 0,
        "slot": "2",
        "type": "t_bool"
      }
    ],
    "types": {
      "t_address": {
        "encoding": "inplace",
        "label": "address",
        "numberOfBytes": "20"
      },
      "t_bool": {
        "encoding": "inplace",
        "label": "bool",
        "numberOfBytes": "1"
      },
      "t_mapping(t_address,t_bool)": {
        "encoding": "mapping",
        "key": "t_address",
        "label": "mapping(address => bool)",
        "numberOfBytes": "32",
        "value": "t_bool"
      }
    }
  }
}